:100000000C942A000C94160B0C94490B0C947C0B4A
:100010000C9447000C9447000C9447000C94470044
:100020000C9447000C9447000C94C8070C944700AC
:100030000C9447000C94AE060C94DB060C9447001D
:100040000C94230F0C9447000C9447000C94470029
:100050000C94470011241FBECFE5D8E0DEBFCDBF12
:1000600012E0A0E6B0E0E4E8F3E402C005900D92EF
:10007000A030B107D9F712E0A0E0B2E001C01D92B4
:10008000A531B107E1F70E9473200C94C0210C94B4
:100090000000EF92FF920F931F937B018C0120E0F1
:1000A00030E040E05FE40E94490388238CF0C801FF
:1000B000B70120E030E040E05FE40E94C1010E940F
:1000C000A9039B01AC01205030404040504806C07D
:1000D000C801B7010E94A9039B01AC01B901CA0183
:1000E0001F910F91FF90EF900895A0E0B0E0EBE733
:1000F000F0E00C948921DC012B01FA019C919230F3
:1001000008F439C1EB018881823008F433C194309E
:1001100069F4843009F02FC111969C91119789815F
:10012000981709F428C1AEEDB1E025C1843009F477
:1001300021C18230A9F4923009F01DC19A01AD01AC
:1001400088E0EA010990AE01E90109929E0181501F
:10015000C1F7E201898111969C918923818308C1AD
:10016000923009F407C112962D903C901397EB0141
:100170008A819B811496AD90BD90CD90DC901797AD
:10018000EC80FD800E811F819101281B390BB90184
:1001900037FF04C066277727621B730B6032710537
:1001A0000CF061C0121613066CF537014801062EDB
:1001B00004C096948794779467940A94D2F721E0C8
:1001C00030E040E050E004C0220F331F441F551FB1
:1001D0006A95D2F721503040404050402E213F21B7
:1001E00040235123211531054105510521F021E01E
:1001F00030E040E050E079018A01E628F72808293C
:1002000019293CC0232BD1F1260E371E350146019A
:10021000062E04C096948794779467940A94D2F734
:1002200021E030E040E050E004C0220F331F441FC3
:10023000551F6A95D2F721503040404050402A2146
:100240003B214C215D21211531054105510521F04E
:1002500021E030E040E050E059016A01A628B728CB
:10026000C828D9280BC0821593052CF01C01AA249C
:10027000BB24650103C0EE24FF24870111969C91E5
:10028000D20111968C91981709F445C0992339F041
:10029000A80197012A193B094C095D0906C0A6016E
:1002A00095012E193F09400B510B57FD08C01182D3
:1002B0003382228224833583468357831DC081E0A5
:1002C00081833382228288279927DC01821B930B4A
:1002D000A40BB50B84839583A683B7830DC0220F2F
:1002E000331F441F551F24833583468357838281E0
:1002F000938101979383828324813581468157813D
:10030000DA01C9010197A109B1098F5F9F4FAF4F72
:10031000BF4328F30BC0918333822282EA0CFB1C7B
:100320000C1D1D1DE482F5820683178383E0808304
:10033000248135814681578157FF1AC0C901AA27F8
:1003400097FDA095BA2F81709070A070B0705695EF
:10035000479537952795822B932BA42BB52B848318
:100360009583A683B7838281938101969383828349
:10037000DF0101C0D201CD01CDB7DEB7E2E10C94BF
:10038000A521A0E2B0E0E7ECF1E00C9495216983AF
:100390007A838B839C832D833E834F835887E9E048
:1003A000EE2EF12CEC0EFD1ECE010196B7010E943F
:1003B000D2048E010F5E1F4FCE010596B8010E9438
:1003C000D2048A8991E089278A8BC701B801AE01DE
:1003D000475E5F4F0E9475000E94FD03A096E6E015
:1003E0000C94B121A0E2B0E0E8EFF1E00C9495218B
:1003F00069837A838B839C832D833E834F835887C5
:10040000F9E0EF2EF12CEC0EFD1ECE010196B701A6
:100410000E94D2048E010F5E1F4FCE010596B801D7
:100420000E94D204C701B801AE01475E5F4F0E942F
:1004300075000E94FD03A096E6E00C94B121A0E2B5
:10044000B0E0E5E2F2E00C94892169837A838B8342
:100450009C832D833E834F835887CE010196BE0136
:10046000675F7F4F0E94D204CE010596BE016F5E8A
:100470007F4F0E94D2049985923088F0898982301A
:10048000C8F0943019F4823051F404C0843029F457
:10049000923081F48EED91E0C6C0923049F420E0B4
:1004A0009A858A89981321E02A87CE010996BBC0D4
:1004B000823049F420E09A858A89981321E02A8BBA
:1004C000CE014196B0C02D843E844F8458886D88FB
:1004D0007E888F88988CEE24FF248701AA24BB2471
:1004E000650140E050E060E070E0E0E0F0E0C10174
:1004F00081709070892BE9F0E60CF71C081D191D1E
:100500009A01AB012A0D3B1D4C1D5D1D80E090E062
:10051000A0E0B0E0E614F7040805190520F481E036
:1005200090E0A0E0B0E0BA01A901480F591F6A1F8E
:100530007B1FAA0CBB1CCC1CDD1C97FE08C081E0F5
:1005400090E0A0E0B0E0A82AB92ACA2ADB2A3196B6
:10055000E032F10549F0660C771C881C991C569412
:10056000479437942794C3CFFA85EA892B893C892D
:100570008B859C85280F391F2E5F3F4F17C0CA01FE
:1005800081709070892B61F016950795F794E79428
:1005900080E090E0A0E0B0E8E82AF92A0A2B1B2BC3
:1005A00076956795579547952F5F3F4F77FDE7CF36
:1005B0000CC0440F551F661F771F17FD4160EE0CDE
:1005C000FF1C001F111F21503040403090E05907A0
:1005D00090E0690790E4790760F32B8F3C8FDB0193
:1005E000CA018F779070A070B07080349105A1051A
:1005F000B10561F447FD0AC0E114F10401051105DC
:1006000029F0405C5F4F6F4F7F4F40781A8EFE1786
:1006100011F081E08A8F4D8F5E8F6F8F78A383E01A
:10062000898FCE0149960E94FD03A096E2E10C94C9
:10063000A521A8E1B0E0EFE1F3E00C9495216983F6
:100640007A838B839C832D833E834F83588789E0F5
:10065000E82EF12CEC0EFD1ECE010196B7010E9492
:10066000D2048E010F5E1F4FCE010596B8010E9485
:10067000D2048985823040F08989823028F0C70110
:10068000B8010E944A0501C08FEF6896E6E00C941D
:10069000B121A8E1B0E0EFE4F3E00C949521698387
:1006A0007A838B839C832D833E834F83588789E095
:1006B000E82EF12CEC0EFD1ECE010196B7010E9432
:1006C000D2048E010F5E1F4FCE010596B8010E9425
:1006D000D2048985823040F08989823028F0C701B0
:1006E000B8010E944A0501C08FEF6896E6E00C94BD
:1006F000B121A8E1B0E0EFE7F3E00C949521698324
:100700007A838B839C832D833E834F83588789E034
:10071000E82EF12CEC0EFD1ECE010196B7010E94D1
:10072000D2048E010F5E1F4FCE010596B8010E94C4
:10073000D2048985823040F08989823028F0C7014F
:10074000B8010E944A0501C081E06896E6E00C9479
:10075000B121ACE0B0E0EFEAF3E00C9499216983B9
:100760007A838B839C83CE010196BE016B5F7F4FA2
:100770000E94D2048D81823061F1823050F1843048
:1007800021F48E81882351F12EC02F81388537FDC9
:1007900020C06E812F3131051CF06623F9F023C093
:1007A0008EE190E0821B930B29853A854B855C8511
:1007B00004C056954795379527958A95D2F76623B5
:1007C000B1F050954095309521953F4F4F4F5F4F79
:1007D0000EC020E030E040E050E009C02FEF3FEFD6
:1007E0004FEF5FE704C020E030E040E050E8B9019F
:1007F000CA012C96E2E00C94B521DF92EF92FF92B1
:100800000F931F93FC01E480F58006811781D1804E
:100810008081823048F480E090E0A0E1B0E0E82AF6
:10082000F92A0A2B1B2BA5C0843009F49FC0823003
:1008300021F4EE24FF24870105C0E114F104010531
:10084000110519F4E0E0F0E096C0628173819FEF3A
:10085000623879070CF05BC022E83FEF261B370BAC
:100860002A3131052CF020E030E040E050E02AC091
:10087000B801A701022E04C0769567955795479554
:100880000A94D2F781E090E0A0E0B0E004C0880FC5
:10089000991FAA1FBB1F2A95D2F70197A109B10979
:1008A0008E219F21A023B1230097A105B10521F03E
:1008B00081E090E0A0E0B0E09A01AB01282B392B59
:1008C0004A2B5B2BDA01C9018F779070A070B07052
:1008D00080349105A105B10539F427FF09C0205CDA
:1008E0003F4F4F4F5F4F04C0215C3F4F4F4F5F4F13
:1008F000E0E0F0E02030A0E03A07A0E04A07A0E402
:100900005A0710F0E1E0F0E079018A0127C0603871
:10091000710564F5FB01E158FF4FD801C7018F77DE
:100920009070A070B07080349105A105B10539F4C4
:10093000E7FE0DC080E490E0A0E0B0E004C08FE3EB
:1009400090E0A0E0B0E0E80EF91E0A1F1B1F17FFA1
:1009500005C016950795F794E794319687E01695AC
:100960000795F794E7948A95D1F705C0EE24FF2404
:100970008701EFEFF0E06E2F679566276795902F60
:100980009F77D794DD24D7948E2F8695492F462BB9
:10099000582F5D29B701CA011F910F91FF90EF9069
:1009A000DF900895FC01DB01408151812281622F9B
:1009B0006F7770E0221F2227221F9381892F880FD3
:1009C000822B282F30E0991F9927991F11969C930D
:1009D000119721153105A9F54115510561057105DD
:1009E00011F482E037C082E89FEF13969C938E93B8
:1009F00012979A01AB0167E0220F331F441F551F66
:100A00006A95D1F783E08C930DC0220F331F441FEA
:100A1000551F12968D919C911397019713969C9355
:100A20008E931297203080E0380780E0480780E4FA
:100A3000580758F314962D933D934D935C93179755
:100A400008952F3F310579F4411551056105710570
:100A500019F484E08C93089564FF03C081E08C93C3
:100A600012C01C9210C02F57304013963C932E9307
:100A7000129783E08C9387E0440F551F661F771F02
:100A80008A95D1F7706414964D935D936D937C9322
:100A9000179708951F93DC01FB019C91923008F495
:100AA00047C08081823008F443C0943051F41196DD
:100AB0001C91843099F58181682F70E0611B710968
:100AC0003FC0843021F0923031F48230B9F181811D
:100AD000882389F12DC011961C9111978230F1F075
:100AE00081811817D9F412962D913C911397828128
:100AF00093818217930794F028173907BCF0149656
:100B00008D919D910D90BC91A02D248135814681C0
:100B10005781281739074A075B0718F4112341F05A
:100B20000AC082179307A407B50740F4112319F0F0
:100B300061E070E005C06FEF7FEF02C060E070E041
:100B4000CB011F910895DF93CF9300D0CDB7DEB7CF
:100B50009A83898389819A819093120280931102EA
:100B60000F900F90CF91DF910895DF93CF9300D036
:100B7000CDB7DEB79A83898389819A8190931402D5
:100B8000809313020F900F90CF91DF910895DF9320
:100B9000CF93CDB7DEB7ECE2F0E08081CF91DF916B
:100BA0000895DF93CF930F92CDB7DEB71982898175
:100BB00080688983AAE2B0E0EAE2F0E080818B7F7E
:100BC0008C9389818460898389818260898389810A
:100BD0008F7B898389818F7D898389818F7E8983BA
:100BE0008981877F898389818E7F8983E0E4F0E032
:100BF00089818083E0E4F0E01082E9E2F0E087E6BA
:100C00008083AAE2B0E0EAE2F0E0808180618C9328
:100C1000AAE2B0E0EAE2F0E0808188608C93AAE288
:100C2000B0E0EAE2F0E080818F778C93AAE2B0E056
:100C3000EAE2F0E080818F7D8C930F90CF91DF917D
:100C40000895DF93CF930F92CDB7DEB78983EBE2A0
:100C5000F0E08081829586958770882F90E0817082
:100C600090700097A1F3ECE2F0E0898180830F900F
:100C7000CF91DF910895DF93CF93CDB7DEB78DE0AD
:100C80000E942106CF91DF910895DF93CF9300D08A
:100C90000F92CDB7DEB79B838A8319820EC08981FC
:100CA000282F30E08A819B81FC01E20FF31F8081B5
:100CB0000E94210689818F5F89838981282F30E0F6
:100CC0008A819B81FC01E20FF31F8081882339F721
:100CD0000F900F900F90CF91DF910895DF93CF93F6
:100CE000CDB7DEB7EBE2F0E080818823DCF7ECE201
:100CF000F0E08081CF91DF910895DF93CF9300D012
:100D000000D0CDB7DEB79B838A836C8319821982AA
:100D100014C0EBE2F0E080818823DCF78981282F82
:100D200030E08A819B81DC01A20FB31FECE2F0E08E
:100D300080818C9389818F5F89838981282F30E01E
:100D40008C81882F90E001972817390714F30F90B2
:100D50000F900F900F90CF91DF9108951F920F92F7
:100D60000FB60F9211242F933F934F935F936F937E
:100D70007F938F939F93AF93BF93EF93FF93DF93F3
:100D8000CF93CDB7DEB7E0911102F0911202099531
:100D9000CF91DF91FF91EF91BF91AF919F918F9193
:100DA0007F916F915F914F913F912F910F900FBE67
:100DB0000F901F9018951F920F920FB60F9211244B
:100DC0002F933F934F935F936F937F938F939F9353
:100DD000AF93BF93EF93FF93DF93CF93CDB7DEB77E
:100DE000E0911302F09114020995CF91DF91FF91E8
:100DF000EF91BF91AF919F918F917F916F915F9193
:100E00004F913F912F910F900FBE0F901F9018950B
:100E1000DF93CF93CDB7DEB7A3E5B0E0E3E5F0E035
:100E2000808180648C93A3E5B0E0E3E5F0E080810D
:100E300088608C93A3E5B0E0E3E5F0E08081806218
:100E40008C93A3E5B0E0E3E5F0E080818F7E8C93A6
:100E5000A3E5B0E0E3E5F0E080818E7F8C93A3E52D
:100E6000B0E0E3E5F0E0808182608C93A3E5B0E040
:100E7000E3E5F0E080818B7F8C93CF91DF91089543
:100E8000DF93CF930F92CDB7DEB78983ECE5F0E027
:100E9000898180830F90CF91DF910895DF93CF9365
:100EA00000D00F92CDB7DEB79B838A8319828A81E7
:100EB0009B81009739F08A819B81909301028093F6
:100EC000000202C081E0898389810F900F900F900A
:100ED000CF91DF910895DF93CF93CDB7DEB7AEE426
:100EE000B0E0EEE4F0E080818E7F8C93AEE4B0E081
:100EF000EEE4F0E0808182608C93AEE4B0E0EEE45A
:100F0000F0E080818B7F8C93CF91DF910895DF9308
:100F1000CF9300D0CDB7DEB79A838983EAE4F0E0BF
:100F200089819A81918380830F900F90CF91DF9177
:100F30000895DF93CF9300D0CDB7DEB79A8389832E
:100F4000E6E4F0E089819A81918380830F900F908D
:100F5000CF91DF910895DF93CF9300D0CDB7DEB767
:100F60009A838983ECE4F0E089819A81918380837C
:100F70000F900F90CF91DF910895DF93CF93CDB76E
:100F8000DEB7ECE4F0E080819181CF91DF910895AC
:100F90001F920F920FB60F9211242F933F934F93EE
:100FA0005F936F937F938F939F93AF93BF93EF93D1
:100FB000FF93DF93CF93CDB7DEB78091000290917E
:100FC0000102009729F0E0910002F09101020995D9
:100FD000CF91DF91FF91EF91BF91AF919F918F9151
:100FE0007F916F915F914F913F912F910F900FBE25
:100FF0000F901F901895DF93CF93CDB7DEB7EAE33C
:10100000F0E082EF8083E7E3F0E08FEF8083E4E3BA
:10101000F0E08BEF8083E1E3F0E082E08083EBE3BC
:10102000F0E082E08083E8E3F0E01082E5E3F0E0C6
:101030001082E2E3F0E084EF8083CF91DF910895A6
:10104000DF93CF93CDB7DEB7E1E2F0E01082E0E2CC
:10105000F0E088E08083E6E5F0E084E08083CF91F3
:10106000DF910895DF93CF93CDB7DEB7E6E5F0E0EB
:1010700084EA8083E6E5F0E080818823DCF7CF9185
:10108000DF910895DF93CF93CDB7DEB7E6E5F0E0CB
:1010900084E98083CF91DF910895DF93CF930F92FE
:1010A000CDB7DEB78983E3E2F0E089818083E6E5AE
:1010B000F0E084E88083E6E5F0E080818823DCF7D7
:1010C0000F90CF91DF910895DF93CF930F92CDB71B
:1010D000DEB78983E6E5F0E08981882F90E000247F
:1010E000969587950794969587950794982F802DC8
:1010F00084688083E6E5F0E080818823DCF7E3E222
:10110000F0E080810F90CF91DF910895DF93CF932E
:101110000F92CDB7DEB78983E2E2F0E08981808368
:10112000E6E5F0E084EC80830F90CF91DF910895A5
:10113000DF93CF93CDB7DEB7A6E5B0E0E6E5F0E00C
:101140008081846C8C93E6E5F0E080818823DCF775
:10115000E1E2F0E08081887FCF91DF910895DF9315
:10116000CF93CDB7DEB7E6E5F0E080818823DCF7EA
:10117000E1E2F0E08081887FCF91DF910895DF93F5
:10118000CF93CDB7DEB7AFE5B0E0EFE5F0E080811B
:1011900080688C93CF91DF910895DF93CF93CDB783
:1011A000DEB7AFE5B0E0EFE5F0E080818F778C93BC
:1011B000CF91DF910895DF93CF93CDB7DEB7A5E54B
:1011C000B0E0E5E5F0E080818E7F8C93A5E5B0E0AE
:1011D000E5E5F0E0808182608C93ABE5B0E0EBE583
:1011E000F0E0808180648C93CF91DF910895DF934C
:1011F000CF93CDB7DEB7A5E5B0E0E5E5F0E08081BF
:101200008B7F8C93A5E5B0E0E5E5F0E08081886018
:101210008C93ABE5B0E0EBE5F0E080818F778C93C9
:10122000CF91DF910895DF93CF93CDB7DEB7A4E5DB
:10123000B0E0E4E5F0E080818F7B8C93ABE5B0E03B
:10124000EBE5F0E080818F7D8C93CF91DF91089565
:10125000DF93CF9300D000D0CDB7DEB78A83198259
:101260008A81282F30E03C832B838B819C818230C4
:10127000910529F12B813C812330310534F48B8198
:101280009C818130910561F047C02B813C812330E6
:10129000310521F18B819C818430910571F13CC035
:1012A000A5E5B0E0E5E5F0E080818E7F8C93A5E5D3
:1012B000B0E0E5E5F0E080818D7F8C932FC0A5E55F
:1012C000B0E0E5E5F0E0808181608C93A5E5B0E0D9
:1012D000E5E5F0E080818D7F8C9320C0A5E5B0E04E
:1012E000E5E5F0E080818E7F8C93A5E5B0E0E5E553
:1012F000F0E0808182608C9311C0A5E5B0E0E5E567
:10130000F0E0808181608C93A5E5B0E0E5E5F0E058
:10131000808182608C9302C081E0898389810F90F3
:101320000F900F900F90CF91DF910895DF93CF939F
:1013300000D000D0CDB7DEB78A8319828A81282FEA
:1013400030E03C832B838B819C818230910529F195
:101350002B813C812330310534F48B819C81813099
:10136000910561F047C02B813C812330310521F18B
:101370008B819C818430910571F13CC0A5E5B0E082
:10138000E5E5F0E080818B7F8C93A5E5B0E0E5E5B5
:10139000F0E08081877F8C932FC0A5E5B0E0E5E584
:1013A000F0E0808184608C93A5E5B0E0E5E5F0E0B5
:1013B0008081877F8C9320C0A5E5B0E0E5E5F0E073
:1013C00080818B7F8C93A5E5B0E0E5E5F0E080813E
:1013D00088608C9311C0A5E5B0E0E5E5F0E0808180
:1013E00084608C93A5E5B0E0E5E5F0E0808188605D
:1013F0008C9302C081E0898389810F900F900F90B8
:101400000F90CF91DF910895DF93CF9300D000D05C
:10141000CDB7DEB78A8319828A81282F30E03C83DA
:101420002B838B819C818330910531F02B813C8112
:101430002430310549F010C0A4E5B0E0E4E5F0E067
:1014400080818F7B8C930AC0A4E5B0E0E4E5F0E0F6
:10145000808180648C9302C081E0898389810F90B0
:101460000F900F900F90CF91DF910895DF93CF935E
:1014700000D000D0CDB7DEB78A8319828A81282FA9
:1014800030E03C832B838B819C818130910589F0F6
:101490002B813C8122303105A1F08B819C8100970A
:1014A000C1F4ABE5B0E0EBE5F0E0808180648C93C3
:1014B00012C0ABE5B0E0EBE5F0E0808180688C9392
:1014C0000AC0ABE5B0E0EBE5F0E0808180628C9390
:1014D00002C081E0898389810F900F900F900F9057
:1014E000CF91DF910895DF93CF9300D000D0CDB797
:1014F000DEB78A8319828A81282F30E03C832B83D0
:101500008B819C818130910589F02B813C81223037
:101510003105A1F08B819C810097C1F4ABE5B0E06F
:10152000EBE5F0E080818F7B8C9312C0ABE5B0E0FF
:10153000EBE5F0E080818F778C930AC0ABE5B0E0FB
:10154000EBE5F0E080818F7D8C9302C081E08983A0
:1015500089810F900F900F900F90CF91DF91089598
:10156000DF93CF9300D000D0CDB7DEB79B838A83C3
:1015700019828A819B81009749F08A819B8190938F
:1015800003028093020289818C8304C082E08983F4
:1015900089818C838C810F900F900F900F90CF9149
:1015A000DF910895DF93CF9300D000D0CDB7DEB7A1
:1015B0009B838A8319828A819B81009749F08A8163
:1015C0009B81909305028093040289818C8304C0DF
:1015D00082E0898389818C838C810F900F900F909A
:1015E0000F90CF91DF910895DF93CF9300D000D07B
:1015F000CDB7DEB79B838A8319828A819B8100974E
:1016000049F08A819B819093070280930602898129
:101610008C8304C082E0898389818C838C810F90C4
:101620000F900F900F90CF91DF9108951F920F921E
:101630000FB60F9211242F933F934F935F936F93A5
:101640007F938F939F93AF93BF93EF93FF93DF931A
:10165000CF93CDB7DEB7809102029091030200973D
:1016600029F0E0910202F09103020995CF91DF91F8
:10167000FF91EF91BF91AF919F918F917F916F916A
:101680005F914F913F912F910F900FBE0F901F9040
:1016900018951F920F920FB60F9211242F933F931C
:1016A0004F935F936F937F938F939F93AF93BF936A
:1016B000EF93FF93DF93CF93CDB7DEB78091040212
:1016C00090910502009729F0E0910402F091050243
:1016D0000995CF91DF91FF91EF91BF91AF919F91CC
:1016E0008F917F916F915F914F913F912F910F90CB
:1016F0000FBE0F901F9018951F920F920FB60F926A
:1017000011242F933F934F935F936F937F938F9306
:101710009F93AF93BF93EF93FF93DF93CF93CDB797
:10172000DEB78091060290910702009729F0E091C0
:101730000602F09107020995CF91DF91FF91EF9199
:10174000BF91AF919F918F917F916F915F914F91D9
:101750003F912F910F900FBE0F901F901895DF9320
:10176000CF93CDB7DEB728970FB6F894DEBF0FBE84
:10177000CDBF8A836B834C8319828B81883008F0BC
:10178000F3C08C81882309F077C08A81282F30E04C
:1017900038872F838F8198858130910559F12F816A
:1017A0003885223031052CF48F819885009769F0B7
:1017B00060C02F8138852230310589F18F8198856D
:1017C0008330910509F440C054C0ABE3B0E0EBE3D3
:1017D000F0E08081482F8B81282F30E081E090E07D
:1017E000022E02C0880F991F0A94E2F78095842385
:1017F0008C93BAC0A8E3B0E0E8E3F0E08081482F22
:101800008B81282F30E081E090E0022E02C0880F0B
:10181000991F0A94E2F7809584238C93A5C0A5E3D1
:10182000B0E0E5E3F0E08081482F8B81282F30E0A5
:1018300081E090E0022E02C0880F991F0A94E2F71F
:10184000809584238C9390C0A2E3B0E0E2E3F0E0C3
:101850008081482F8B81282F30E081E090E0022E9C
:1018600002C0880F991F0A94E2F7809584238C9315
:101870007BC081E0898378C08C81813009F072C09F
:101880008A81282F30E03E832D838D819E81813097
:10189000910549F12D813E81223031052CF48D8155
:1018A0009E81009761F05BC02D813E812230310521
:1018B00071F18D819E8183309105E9F150C0ABE3D8
:1018C000B0E0EBE3F0E08081482F8B81282F30E0FF
:1018D00081E090E0022E02C0880F991F0A94E2F77F
:1018E000842B8C9341C0A8E3B0E0E8E3F0E0808172
:1018F000482F8B81282F30E081E090E0022E02C03B
:10190000880F991F0A94E2F7842B8C932DC0A5E3CE
:10191000B0E0E5E3F0E08081482F8B81282F30E0B4
:1019200081E090E0022E02C0880F991F0A94E2F72E
:10193000842B8C9319C0A2E3B0E0E2E3F0E0808155
:10194000482F8B81282F30E081E090E0022E02C0EA
:10195000880F991F0A94E2F7842B8C9305C081E0CD
:10196000898302C081E08983898128960FB6F89423
:10197000DEBF0FBECDBFCF91DF910895DF93CF9330
:1019800000D000D00F92CDB7DEB78A836B83198267
:101990008A81282F30E03D832C838C819D8181308A
:1019A0009105D1F02C813D81223031052CF48C81C0
:1019B0009D81009761F01FC02C813D81223031054F
:1019C00081F08C819D818330910581F014C0EBE31F
:1019D000F0E08B81808311C0E8E3F0E08B818083AD
:1019E0000CC0E5E3F0E08B81808307C0E2E3F0E028
:1019F0008B81808302C081E0898389810F900F9061
:101A00000F900F900F90CF91DF910895DF93CF93B8
:101A1000CDB7DEB727970FB6F894DEBF0FBECDBFA8
:101A20008A836B835D834C8319828C819D810097AF
:101A300009F478C08B81883008F074C08A81282F1F
:101A400030E03F832E834E815F814130510559F153
:101A50008E819F818230910534F42E813F81211542
:101A6000310569F05CC04E815F814230510579F1EA
:101A70008E819F818330910509F43DC050C0E9E318
:101A8000F0E08081282F30E08B81882F90E0A90141
:101A900002C0559547958A95E2F7CA018170EC819D
:101AA000FD81808341C0E6E3F0E08081282F30E0B3
:101AB0008B81882F90E0A90102C0559547958A95A2
:101AC000E2F7CA018170EC81FD8180832DC0E3E3E0
:101AD000F0E08081282F30E08B81882F90E0A901F1
:101AE00002C0559547958A95E2F7CA018170EC814D
:101AF000FD81808319C0E0E3F0E08081282F30E091
:101B00008B81882F90E0A90102C0559547958A9551
:101B1000E2F7CA018170EC81FD81808305C081E01C
:101B2000898302C081E08983898127960FB6F89462
:101B3000DEBF0FBECDBFCF91DF910895DF93CF936E
:101B400000D000D00F92CDB7DEB78A836B831982A5
:101B50008B81883008F071C08A81282F30E03D8366
:101B60002C838C819D818130910549F12C813D81AF
:101B7000223031052CF48C819D81009761F05BC08F
:101B80002C813D812230310571F18C819D81833022
:101B90009105E9F150C0ABE3B0E0EBE3F0E0808108
:101BA000482F8B81282F30E081E090E0022E02C088
:101BB000880F991F0A94E2F784278C933EC0A8E30C
:101BC000B0E0E8E3F0E08081482F8B81282F30E0FF
:101BD00081E090E0022E02C0880F991F0A94E2F77C
:101BE00084278C932AC0A5E3B0E0E5E3F0E0808190
:101BF000482F8B81282F30E081E090E0022E02C038
:101C0000880F991F0A94E2F784278C9316C0A2E3E9
:101C1000B0E0E2E3F0E08081482F8B81282F30E0B4
:101C200081E090E0022E02C0880F991F0A94E2F72B
:101C300084278C9302C081E0898389810F900F9063
:101C40000F900F900F90CF91DF910895DF93CF9376
:101C5000CDB7DEB7A7E2B0E0E7E2F0E080818064D4
:101C60008C93A7E2B0E0E7E2F0E080818F778C937D
:101C7000A7E2B0E0E7E2F0E0808180628C93A6E228
:101C8000B0E0E6E2F0E0808184608C93A6E2B0E010
:101C9000E6E2F0E0808182608C93A6E2B0E0E6E2CA
:101CA000F0E0808181608C93A6E2B0E0E6E2F0E0B3
:101CB000808180688C93CF91DF910895DF93CF93DB
:101CC000CDB7DEB728970FB6F894DEBF0FBECDBFF5
:101CD0008E8378876F831A821B821C821D821982F1
:101CE000A7E2B0E0E7E2F0E08081807E8C93A7E29B
:101CF000B0E0E7E2F0E090818E81892B8C93A6E240
:101D0000B0E0E6E2F0E0808180648C930BC08A81D1
:101D10009B81AC81BD810196A11DB11D8A839B83EE
:101D2000AC83BD83E6E2F0E0808182958F70882FDE
:101D300090E081709070009761F48A819B81AC8102
:101D4000BD81803523EC920720E0A20720E0B20796
:101D5000F1F68A819B81AC81BD81803523EC9207AD
:101D600020E0A20720E0B20719F481E0898310C0C7
:101D7000A6E2B0E0E6E2F0E0808180618C93E5E2EB
:101D8000F0E08081882F90E0EF81F8859183808357
:101D9000898128960FB6F894DEBF0FBECDBFCF91D4
:101DA000DF910895DF93CF93CDB7DEB727970FB6B6
:101DB000F894DEBF0FBECDBF8A837C836B835E83C6
:101DC0004D8319828981882321F08D819E8100971E
:101DD00029F482E0898389818F832BC08B819C8148
:101DE00090930902809308028D819E8190930B024B
:101DF00080930A02A7E2B0E0E7E2F0E08081807E13
:101E00008C93A7E2B0E0E7E2F0E090818A81892B31
:101E10008C93A6E2B0E0E6E2F0E0808180648C93EF
:101E2000A6E2B0E0E6E2F0E0808188608C938981F0
:101E30008F838F8127960FB6F894DEBF0FBECDBF7C
:101E4000CF91DF9108951F920F920FB60F92112438
:101E50002F933F934F935F936F937F938F939F93B2
:101E6000AF93BF93EF93FF93DF93CF93CDB7DEB7DD
:101E7000A0910802B0910902E5E2F0E08081882F8C
:101E800090E08D939C93E0910A02F0910B020995EA
:101E9000A6E2B0E0E6E2F0E08081877F8C93CF910C
:101EA000DF91FF91EF91BF91AF919F918F917F91C2
:101EB0006F915F914F913F912F910F900FBE0F90B7
:101EC0001F901895DF93CF9300D00F92CDB7DEB758
:101ED0008A836B8319828B81883048F48A818430AD
:101EE00030F48A816B8141E00E94AF0B02C081E037
:101EF000898389810F900F900F90CF91DF91089582
:101F0000DF93CF9300D00F92CDB7DEB78A836B8378
:101F100019828B81883048F48A81843030F48A8138
:101F20006B8140E00E94AF0B02C081E08983898110
:101F30000F900F900F90CF91DF910895DF93CF9383
:101F400000D00F92CDB7DEB78A836B8319828B8165
:101F5000883040F48A81843028F48A816B810E9421
:101F60009E0D02C081E0898389810F900F900F90B0
:101F7000CF91DF910895DF93CF9300D000D00F92DF
:101F8000CDB7DEB78FEF8B831A825EC08A81882F30
:101F900090E0FC01E651FE4F908182E0692F40E025
:101FA0000E94AF0B19823DC08981882F90E0FC010F
:101FB000EA51FE4F90819E012C5F3F4F83E0692FD5
:101FC000A9010E94060D8C81882341F50FC08981EB
:101FD000882F90E0FC01EA51FE4F90819E012C5F1A
:101FE0003F4F83E0692FA9010E94060D8C81882351
:101FF00071F38981482F50E08A81282F30E0CA018F
:10200000880F991F880F991F820F931FFC01E251BF
:10201000FE4F80818B838B818D831CC089818F5F74
:1020200089838981843008F4BFCF8A81882F90E02A
:10203000FC01E651FE4F908182E0692F41E00E9451
:10204000AF0B8A818F5F8A838A81843008F49ECFA8
:102050008B818D838D810F900F900F900F900F903B
:10206000CF91DF910895DF93CF9300D000D0CDB70B
:10207000DEB71A8219828981882F90E0A0E0B0E053
:10208000BC01CD010E9474168091FE01803311F4D1
:102090001B8224C00E94BB0F8A838A818F3FA1F3D9
:1020A0008A818D3319F489818B8318C08981882FA7
:1020B00090E09C01220F331FC901880F991F880FE0
:1020C000991F820F931F982F8A81890F80538983CC
:1020D0000E945F178A818D3371F602C08B818C83D9
:1020E0008C810F900F900F900F90CF91DF910895FA
:1020F000DF93CF93CDB7DEB70E942008CF91DF9159
:102100000895DF93CF93CDB7DEB761970FB6F894FC
:10211000DEBF0FBECDBF8F87688B498B0E94200822
:102120000E94320888890E944D088F850E944D08C0
:1021300089890E944D080E94420880E090E0A0E753
:10214000B1E48B879C87AD87BE876B857C858D8549
:102150009E8520E030E04AEF54E40E941F02DC013B
:10216000CB018F839887A987BA876F817885898506
:102170009A8520E030E040E85FE30E9479038823FD
:102180002CF481E090E09E838D833FC06F81788541
:1021900089859A8520E03FEF4FE757E40E941903B5
:1021A00018164CF56B857C858D859E8520E030E08A
:1021B00040E251E40E941F02DC01CB01BC01CD01D1
:1021C0000E944900DC01CB019E838D830FC088EC07
:1021D00090E09C838B838B819C810197F1F79C839A
:1021E0008B838D819E8101979E838D838D819E81BE
:1021F000009769F714C06F81788589859A850E9458
:102200004900DC01CB019E838D838D819E819A8361
:10221000898389819A810197F1F79A8389836196ED
:102220000FB6F894DEBF0FBECDBFCF91DF910895FA
:10223000DF93CF9300D00F92CDB7DEB78A836B8345
:1022400019820E9432088B810E944D088A810E9467
:102250004D080E9432088B8181600E944D0880E009
:102260000E94640889830E94420889810F900F9020
:102270000F90CF91DF910895DF93CF93CDB7DEB765
:10228000E9970FB6F894DEBF0FBECDBF89AF81E0EE
:1022900061E040E00E94AF0B81E062E040E00E941C
:1022A000AF0B89AD982F907F80E0692F0E94BE0C04
:1022B00081E060E041E00E94AF0B80E090E0A0E8A8
:1022C000BFE38DAB9EABAFABB8AF6DA97EA98FA9B5
:1022D00098AD20E030E04AEF54E40E941F02DC0198
:1022E000CB0189AB9AABABABBCAB69A97AA98BA983
:1022F0009CA920E030E040E85FE30E947903882356
:102300002CF481E090E098AB8FA73FC069A97AA92F
:102310008BA99CA920E03FEF4FE757E40E941903E7
:1023200018164CF56DA97EA98FA998AD20E030E074
:1023300040E251E40E941F02DC01CB01BC01CD014F
:102340000E944900DC01CB0198AB8FA70FC088EC3D
:1023500090E09EA78DA78DA59EA50197F1F79EA75A
:102360008DA78FA598A9019798AB8FA78FA598A93E
:10237000009769F714C069A97AA98BA99CA90E9442
:102380004900DC01CB0198AB8FA78FA598A99CA72A
:102390008BA78BA59CA50197F1F79CA78BA781E044
:1023A00060E040E00E94AF0B80E090E0A0E8BFE377
:1023B0008FA398A7A9A7BAA76FA178A589A59AA561
:1023C00020E030E04AEF54E40E941F02DC01CB0120
:1023D0008BA39CA3ADA3BEA36BA17CA18DA19EA149
:1023E00020E030E040E85FE30E94790388232CF48A
:1023F00081E090E09AA389A33FC06BA17CA18DA14D
:102400009EA120E03FEF4FE757E40E941903181602
:102410004CF56FA178A589A59AA520E030E040E2AF
:1024200051E40E941F02DC01CB01BC01CD010E94DE
:102430004900DC01CB019AA389A30FC088EC90E08E
:1024400098A38F8F8F8D98A10197F1F798A38F8F05
:1024500089A19AA101979AA389A389A19AA100971A
:1024600069F714C06BA17CA18DA19EA10E944900B7
:10247000DC01CB019AA389A389A19AA19E8F8D8F9C
:102480008D8D9E8D0197F1F79E8F8D8F89AD882F51
:1024900090E082959295907F9827807F9827982F3B
:1024A00080E0692F0E94BE0C81E060E041E00E9464
:1024B000AF0B80E090E0A0E8BFE3898F9A8FAB8FED
:1024C000BC8F698D7A8D8B8D9C8D20E030E04AEF3A
:1024D00054E40E941F02DC01CB018D8B9E8BAF8BDD
:1024E000B88F6D897E898F89988D20E030E040E833
:1024F0005FE30E94790388232CF481E090E09C8BB9
:102500008B8B3FC06D897E898F89988D20E03FEF4E
:102510004FE757E40E94190318164CF5698D7A8D20
:102520008B8D9C8D20E030E040E251E40E941F0240
:10253000DC01CB01BC01CD010E944900DC01CB01D3
:102540009C8B8B8B0FC088EC90E09A8B898B898950
:102550009A890197F1F79A8B898B8B899C890197CE
:102560009C8B8B8B8B899C89009769F714C06D8934
:102570007E898F89988D0E944900DC01CB019C8B5C
:102580008B8B8B899C89988B8F878F8598890197F6
:10259000F1F7988B8F8781E060E040E00E94AF0BFD
:1025A00080E090E0A0E8BFE38B879C87AD87BE8783
:1025B0006B857C858D859E8520E030E04AEF54E474
:1025C0000E941F02DC01CB018F839887A987BA87FD
:1025D0006F81788589859A8520E030E040E85FE367
:1025E0000E94790388232CF481E090E09E838D8300
:1025F0003FC06F81788589859A8520E03FEF4FE75E
:1026000057E40E94190318164CF56B857C858D855F
:102610009E8520E030E040E251E40E941F02DC0190
:10262000CB01BC01CD010E944900DC01CB019E839E
:102630008D830FC088EC90E09C838B838B819C8181
:102640000197F1F79C838B838D819E8101979E83F7
:102650008D838D819E81009769F714C06F81788585
:1026600089859A850E944900DC01CB019E838D8378
:102670008D819E819A83898389819A810197F1F75F
:102680009A838983E9960FB6F894DEBF0FBECDBF5B
:10269000CF91DF910895DF93CF93CDB7DEB7E99760
:1026A0000FB6F894DEBF0FBECDBF89AF81E061E009
:1026B00041E00E94AF0B81E062E040E00E94AF0B7E
:1026C00089AD982F907F80E0692F0E94BE0C81E039
:1026D00060E041E00E94AF0B80E090E0A0E8BFE343
:1026E0008DAB9EABAFABB8AF6DA97EA98FA998ADEE
:1026F00020E030E04AEF54E40E941F02DC01CB01ED
:1027000089AB9AABABABBCAB69A97AA98BA99CA9E5
:1027100020E030E040E85FE30E94790388232CF456
:1027200081E090E098AB8FA73FC069A97AA98BA9F7
:102730009CA920E03FEF4FE757E40E9419031816C9
:102740004CF56DA97EA98FA998AD20E030E040E25C
:1027500051E40E941F02DC01CB01BC01CD010E94AB
:102760004900DC01CB0198AB8FA70FC088EC90E04B
:102770009EA78DA78DA59EA50197F1F79EA78DA772
:102780008FA598A9019798AB8FA78FA598A90097B7
:1027900069F714C069A97AA98BA99CA90E9449006C
:1027A000DC01CB0198AB8FA78FA598A99CA78BA71D
:1027B0008BA59CA50197F1F79CA78BA781E060E012
:1027C00040E00E94AF0B80E090E0A0E8BFE38FA361
:1027D00098A7A9A7BAA76FA178A589A59AA520E06F
:1027E00030E04AEF54E40E941F02DC01CB018BA3CE
:1027F0009CA3ADA3BEA36BA17CA18DA19EA120E053
:1028000030E040E85FE30E94790388232CF481E004
:1028100090E09AA389A33FC06BA17CA18DA19EA14A
:1028200020E03FEF4FE757E40E94190318164CF5DC
:102830006FA178A589A59AA520E030E040E251E497
:102840000E941F02DC01CB01BC01CD010E944900A6
:10285000DC01CB019AA389A30FC088EC90E098A378
:102860008F8F8F8D98A10197F1F798A38F8F89A1F2
:102870009AA101979AA389A389A19AA1009769F7C0
:1028800014C06BA17CA18DA19EA10E944900DC0116
:10289000CB019AA389A389A19AA19E8F8D8F8D8D3B
:1028A0009E8D0197F1F79E8F8D8F89AD882F90E0D7
:1028B00082959295907F9827807F9827982F80E027
:1028C000692F0E94BE0C81E060E041E00E94AF0BE6
:1028D00080E090E0A0E8BFE3898F9A8FAB8FBC8F38
:1028E000698D7A8D8B8D9C8D20E030E04AEF54E429
:1028F0000E941F02DC01CB018D8B9E8BAF8BB88FAA
:102900006D897E898F89988D20E030E040E85FE313
:102910000E94790388232CF481E090E09C8B8B8BC0
:102920003FC06D897E898F89988D20E03FEF4FE70A
:1029300057E40E94190318164CF5698D7A8D8B8D1A
:102940009C8D20E030E040E251E40E941F02DC0157
:10295000CB01BC01CD010E944900DC01CB019C8B65
:102960008B8B0FC088EC90E09A8B898B89899A8930
:102970000197F1F79A8B898B8B899C8901979C8BA6
:102980008B8B8B899C89009769F714C06D897E8930
:102990008F89988D0E944900DC01CB019C8B8B8B29
:1029A0008B899C89988B8F878F8598890197F1F700
:1029B000988B8F8781E060E040E00E94AF0B80E061
:1029C00090E0A0E8BFE38B879C87AD87BE876B85CF
:1029D0007C858D859E8520E030E04AEF54E40E949E
:1029E0001F02DC01CB018F839887A987BA876F818B
:1029F000788589859A8520E030E040E85FE30E9491
:102A0000790388232CF481E090E09E838D833FC07E
:102A10006F81788589859A8520E03FEF4FE757E4FD
:102A20000E94190318164CF56B857C858D859E8553
:102A300020E030E040E251E40E941F02DC01CB01C3
:102A4000BC01CD010E944900DC01CB019E838D8336
:102A50000FC088EC90E09C838B838B819C810197D5
:102A6000F1F79C838B838D819E8101979E838D835B
:102A70008D819E81009769F714C06F817885898563
:102A80009A850E944900DC01CB019E838D838D8154
:102A90009E819A83898389819A810197F1F79A832C
:102AA0008983E9960FB6F894DEBF0FBECDBFCF91F4
:102AB000DF910895DF93CF93CDB7DEB72E970FB692
:102AC000F894DEBF0FBECDBF80E090E0A0E2B2E49C
:102AD0008B879C87AD87BE876B857C858D859E8522
:102AE00020E030E04AEF54E40E941F02DC01CB01F9
:102AF0008F839887A987BA876F81788589859A851A
:102B000020E030E040E85FE30E94790388232CF462
:102B100081E090E09E838D833FC06F8178858985B9
:102B20009A8520E03FEF4FE757E40E9419031816FB
:102B30004CF56B857C858D859E8520E030E040E2FC
:102B400051E40E941F02DC01CB01BC01CD010E94B7
:102B50004900DC01CB019E838D830FC088EC90E09F
:102B60009C838B838B819C810197F1F79C838B8362
:102B70008D819E8101979E838D838D819E8100979B
:102B800069F714C06F81788589859A850E9449000C
:102B9000DC01CB019E838D838D819E819A83898305
:102BA00089819A810197F1F79A83898382E00E9453
:102BB0003C1188E20E943C118CE00E943C1181E0B3
:102BC0000E943C112E960FB6F894DEBF0FBECDBF0B
:102BD000CF91DF910895DF93CF9300D00F92CDB7BF
:102BE000DEB79B838A8319820EC08981282F30E04B
:102BF0008A819B81FC01E20FF31F80810E944B13AD
:102C000089818F5F89838981282F30E08A819B8128
:102C1000FC01E20FF31F8081882339F70F900F909A
:102C20000F90CF91DF910895DF93CF9300D00F9253
:102C3000CDB7DEB78A836B8319828A81882319F422
:102C40008B81898306C08A81813019F48B81805CF5
:102C50008983898180580E943C110F900F900F90BA
:102C6000CF91DF910895DF93CF93CDB7DEB727974C
:102C70000FB6F894DEBF0FBECDBF9C838B836D83F0
:102C80004E832F831A828D81882F90E0880F991FA1
:102C9000880F991F880F991F8A838A81805C0E9400
:102CA0003C1119820EC08981282F30E08B819C81D4
:102CB000FC01E20FF31F80810E944B1389818F5F1B
:102CC00089838981883078F38E816F810E94141600
:102CD0008D810E944B1327960FB6F894DEBF0FBE6E
:102CE000CDBFCF91DF910895EF92FF920F931F9385
:102CF000DF93CF93CDB7DEB761970FB6F894DEBF01
:102D00000FBECDBF6E877F87888B998B1A861B86F7
:102D10001C861D86198681E090E0A0E0B0E08D83DE
:102D20009E83AF83B88719821A821B821C828E858C
:102D30009F85A889B9890097A105B10509F054C0FC
:102D400080E30E944B1350C08A859B85AC85BD856E
:102D50002AE030E040E050E0BC01CD010E94342187
:102D60007B018C018E859F85A889B9892AE030E096
:102D700040E050E0BC01CD010E946721DC01CB01A5
:102D80008E0D9F1DA01FB11F8A879B87AC87BD87B3
:102D90008A859B85AC85BD850097A105B10591F419
:102DA0008D819E81AF81B8852AE030E040E050E01F
:102DB000BC01CD010E943421DC01CB018D839E83B7
:102DC000AF83B8878E859F85A889B9892AE030E0CE
:102DD00040E050E0BC01CD010E946721DA01C90149
:102DE0008E879F87A88BB98B8E859F85A889B98987
:102DF0000097A105B10509F0A7CF46C08A859B853C
:102E0000AC85BD852AE030E040E050E0BC01CD015A
:102E10000E946721DC01CB0189878985805D0E9442
:102E20004B138A859B85AC85BD852AE030E040E068
:102E300050E0BC01CD010E946721DA01C9018A87F7
:102E40009B87AC87BD878A859B85AC85BD850097B0
:102E5000A105B105C9F48D819E81AF81B8858A3005
:102E60009105A105B10580F081E090E0A0E0B0E01F
:102E700089839A83AB83BC838D819E81AF81B88522
:102E80008A879B87AC87BD872A853B854C855D8576
:102E900089819A81AB81BC81281739074A075B0772
:102EA00009F0ACCF61960FB6F894DEBF0FBECDBF70
:102EB000CF91DF911F910F91FF90EF900895DF93D5
:102EC000CF93CDB7DEB781E00E943C11CF91DF9167
:102ED0000895DF93CF93CDB7DEB780E061E041E0A6
:102EE0000E94AF0BCF91DF910895DF93CF93CDB7C1
:102EF000DEB780E061E040E00E94AF0BCF91DF9150
:102F00000895DF93CF93CDB7DEB780E061E00E94F4
:102F10009E0DCF91DF910895DF93CF93CDB7DEB7AC
:102F20000E94FB070E945A150E94BF080E940807D2
:102F30000E94DB080E94D1050E94260E83EE9CE1D0
:102F40000E94B00A80E00E94BC1981E066E00E9405
:102F5000800F81E065E00E94800F81E064E00E94C4
:102F6000800F0E947517CF91DF910895DF93CF9363
:102F7000CDB7DEB76C970FB6F894DEBF0FBECDBFEE
:102F800080E690E00E9445060E943B0681E790E0C3
:102F90000E9445060E943B060E945F1780E062E0A7
:102FA0000E9414168DE890E00E94EB1581E062E02B
:102FB0000E9414168DE990E00E94EB1580E090E0ED
:102FC000A6E9B3E4898F9A8FAB8FBC8F698D7A8D18
:102FD0008B8D9C8D20E030E048E453E40E941F027A
:102FE000DC01CB018D8B9E8BAF8BB88F6D897E8979
:102FF0008F89988D20E030E040E85FE30E947903FC
:1030000088232CF481E090E09C8B8B8B3FC06D89F2
:103010007E898F89988D20E03FEF4FE757E40E942B
:10302000190318164CF5698D7A8D8B8D9C8D20E0D7
:1030300030E040E251E40E941F02DC01CB01BC0100
:10304000CD010E944900DC01CB019C8B8B8B0FC012
:1030500084E190E09A8B898B89899A890197F1F7AD
:103060009A8B898B8B899C8901979C8B8B8B8B8905
:103070009C89009769F714C06D897E898F89988D26
:103080000E944900DC01CB019C8B8B8B8B899C8936
:10309000988B8F878F8598890197F1F7988B8F8709
:1030A0000E945F1780E062E00E9414168CEA90E0B4
:1030B0000E94EB1580E090E0A6E9B3E48B879C8743
:1030C000AD87BE876B857C858D859E8520E030E051
:1030D00048E453E40E941F02DC01CB018F839887F0
:1030E000A987BA876F81788589859A8520E030E045
:1030F00040E85FE30E94790388232CF481E090E0AC
:103100009E838D833FC06F81788589859A8520E075
:103110003FEF4FE757E40E94190318164CF56B85F3
:103120007C858D859E8520E030E040E251E40E9460
:103130001F02DC01CB01BC01CD010E944900DC0172
:10314000CB019E838D830FC084E190E09C838B83B1
:103150008B819C810197F1F79C838B838D819E816C
:1031600001979E838D838D819E81009769F714C09E
:103170006F81788589859A850E944900DC01CB01A1
:103180009E838D838D819E819A83898389819A8193
:103190000197F1F79A8389830E945F176C960FB6A7
:1031A000F894DEBF0FBECDBFCF91DF910895DF93BE
:1031B000CF93CDB7DEB72F970FB6F894DEBF0FBE13
:1031C000CDBF1F860E945F1780E060E00E9414164A
:1031D0008DEB90E00E94EB1581E060E00E941416F8
:1031E00086EC90E00E94EB150E94BB0F8F878F85C5
:1031F0008F3F51F38F858B3209F07CC00E945F179F
:103200008CED90E00E94EB1580E090E0A8ECB2E439
:103210008B879C87AD87BE876B857C858D859E85DA
:1032200020E030E048E453E40E941F02DC01CB01BF
:103230008F839887A987BA876F81788589859A85D2
:1032400020E030E040E85FE30E94790388232CF41B
:1032500081E090E09E838D833FC06F817885898572
:103260009A8520E03FEF4FE757E40E9419031816B4
:103270004CF56B857C858D859E8520E030E040E2B5
:1032800051E40E941F02DC01CB01BC01CD010E9470
:103290004900DC01CB019E838D830FC084E190E067
:1032A0009C838B838B819C810197F1F79C838B831B
:1032B0008D819E8101979E838D838D819E81009754
:1032C00069F714C06F81788589859A850E944900C5
:1032D000DC01CB019E838D838D819E819A838983BE
:1032E00089819A810197F1F79A8389830E94BB0FA4
:1032F0008F872EC08F858D32B1F40E945F1780E0DA
:1033000060E00E9414168DEB90E00E94EB1581E0C6
:1033100060E00E94141681EF90E00E94EB150E947D
:10332000BB0F8F8715C08F85813321F481E3809394
:10333000FE0119C08F85823321F482E38093FE0160
:1033400012C08F85833321F483E38093FE010BC089
:103350001F860E94BB0F8F878F858F3FC9F38F8594
:10336000833609F031CF2F960FB6F894DEBF0FBE2B
:10337000CDBFCF91DF910895DF93CF930F92CDB75B
:10338000DEB7898389810E9440070F90CF91DF913A
:1033900008950F931F93DF93CF93CDB7DEB7EF97C9
:1033A0000FB6F894DEBF0FBECDBF1DAE1CAE1BAE78
:1033B0001AAE19AE9E01245C3F4F80E0B9010E9415
:1033C0005E0E8CAD9DADCC01A0E0B0E028E833E10D
:1033D00040E050E0BC01CD010E943421DC01CB0172
:1033E000892F9A2FAB2FBB279AAF89AF89AD9AADA2
:1033F0002AE030E0B9010E945321CB018BAF8BADA5
:10340000082F10E082E290E060EA70E00E9418115C
:10341000801791070CF01FC181E064E00E94800FCB
:1034200081E065E00E94800F8FEF0E94BC1981E06F
:1034300066E00E94620F80E061E041E00E94AF0B15
:1034400080E090E0A8E4B2E48DAB9EABAFABB8AF48
:103450006DA97EA98FA998AD20E030E048E453E43F
:103460000E941F02DC01CB0189AB9AABABABBCABBA
:1034700069A97AA98BA99CA920E030E040E85FE324
:103480000E94790388232CF481E090E098AB8FA709
:103490003FC069A97AA98BA99CA920E03FEF4FE71B
:1034A00057E40E94190318164CF56DA97EA98FA93F
:1034B00098AD20E030E040E251E40E941F02DC01C0
:1034C000CB01BC01CD010E944900DC01CB0198ABCE
:1034D0008FA70FC084E190E09EA78DA78DA59EA524
:1034E0000197F1F79EA78DA78FA598A9019798AB93
:1034F0008FA78FA598A9009769F714C069A97AA921
:103500008BA99CA90E944900DC01CB0198AB8FA735
:103510008FA598A99CA78BA78BA59CA50197F1F7D0
:103520009CA78BA70E945F1780E060E00E941416A2
:1035300086E091E00E94EB158BAD882F90E0A0E033
:10354000B0E0BC01CD010E94741681E060E00E94F1
:1035500014168DE091E00E94EB1581E066E00E9478
:10356000141683E191E00E94EB1580E090E0AAEF51
:10357000B3E48FA398A7A9A7BAA76FA178A589A537
:103580009AA520E030E048E453E40E941F02DC01E9
:10359000CB018BA39CA3ADA3BEA36BA17CA18DA1EA
:1035A0009EA120E030E040E85FE30E947903882399
:1035B0002CF481E090E09AA389A33FC06BA17CA189
:1035C0008DA19EA120E03FEF4FE757E40E94190331
:1035D00018164CF56FA178A589A59AA520E030E0D2
:1035E00040E251E40E941F02DC01CB01BC01CD018D
:1035F0000E944900DC01CB019AA389A30FC084E19A
:1036000090E098A38F8F8F8D98A10197F1F798A3E1
:103610008F8F89A19AA101979AA389A389A19AA1C1
:10362000009769F714C06BA17CA18DA19EA10E9497
:103630004900DC01CB019AA389A389A19AA19E8F9D
:103640008D8F8D8D9E8D0197F1F79E8F8D8F81E0EF
:1036500080930C027AC18BAD082F10E088E290E0D5
:1036600060EA70E00E941811801791070CF0B7C053
:103670008BAD082F10E082E290E060EA70E00E94DB
:103680001811801791070CF4AAC081E064E00E9431
:10369000800F81E066E00E94800F0E94751780E82D
:1036A0000E94BC1981E065E00E94620F0E945F17D2
:1036B00080E060E00E94141686E091E00E94EB1525
:1036C0008BAD882F90E0A0E0B0E0BC01CD010E945E
:1036D000741681E060E00E94141681E291E00E947D
:1036E000EB1581E066E00E94141686E291E00E94EC
:1036F000EB1580E090E0AAEFB3E4898F9A8FAB8F4F
:10370000BC8F698D7A8D8B8D9C8D20E030E048E4F4
:1037100053E40E941F02DC01CB018D8B9E8BAF8B8B
:10372000B88F6D897E898F89988D20E030E040E8E0
:103730005FE30E94790388232CF481E090E09C8B66
:103740008B8B3FC06D897E898F89988D20E03FEFFC
:103750004FE757E40E94190318164CF5698D7A8DCE
:103760008B8D9C8D20E030E040E251E40E941F02EE
:10377000DC01CB01BC01CD010E944900DC01CB0181
:103780009C8B8B8B0FC084E190E09A8B898B89890D
:103790009A890197F1F79A8B898B8B899C8901977C
:1037A0009C8B8B8B8B899C89009769F714C06D89E2
:1037B0007E898F89988D0E944900DC01CB019C8B0A
:1037C0008B8B8B899C89988B8F878F8598890197A4
:1037D000F1F7988B8F8782E080930C02B6C08BAD97
:1037E000082F10E088E290E060EA70E00E94181173
:1037F000801791070CF4A9C081E066E00E94800F59
:1038000081E065E00E94800F0E94751780E00E94B1
:10381000BC1981E064E00E94620F0E945F1780E0A3
:1038200060E00E94141686E091E00E94EB158BADDB
:10383000882F90E0A0E0B0E0BC01CD010E9474169A
:1038400081E060E00E94141683E391E00E94EB1592
:1038500081E064E00E94141687E391E00E94EB157A
:1038600080E090E0AAEFB3E48B879C87AD87BE87AA
:103870006B857C858D859E8520E030E048E453E4AF
:103880000E941F02DC01CB018F839887A987BA872A
:103890006F81788589859A8520E030E040E85FE394
:1038A0000E94790388232CF481E090E09E838D832D
:1038B0003FC06F81788589859A8520E03FEF4FE78B
:1038C00057E40E94190318164CF56B857C858D858D
:1038D0009E8520E030E040E251E40E941F02DC01BE
:1038E000CB01BC01CD010E944900DC01CB019E83CC
:1038F0008D830FC084E190E09C838B838B819C81BE
:103900000197F1F79C838B838D819E8101979E8324
:103910008D838D819E81009769F714C06F817885B2
:1039200089859A850E944900DC01CB019E838D83A5
:103930008D819E819A83898389819A810197F1F78C
:103940009A83898383E080930C0290910D02809189
:103950000C02981749F180910C02282F30E03FAFFC
:103960002EAF8EAD9FAD8230910589F02EAD3FAD6B
:103970002330310599F08EAD9FAD81309105A1F4D2
:103980000E943B0683E491E00E9445060DC00E9420
:103990003B068EE491E00E94450606C00E943B066D
:1039A0008AE591E00E94450680910C0280930D0209
:1039B000EF960FB6F894DEBF0FBECDBFCF91DF916B
:1039C0001F910F910895DF93CF93CDB7DEB780E3BA
:1039D0008093FE01CF91DF910895DF93CF93CDB710
:1039E000DEB7E8970FB6F894DEBF0FBECDBF0E94DA
:1039F0005F1789E691E00E94EB150E9433108093D7
:103A0000100281E060E00E94141689E791E00E94B4
:103A1000EB150E94331080930F0280910F02882FC4
:103A200090E0A0E0B0E0BC01CD010E94741690913E
:103A30000F0288E260EA492F0E9481108091FE0106
:103A4000803321F481E38093FE0121C20E945F173D
:103A500088E891E00E94EB1580911002882F90E099
:103A6000A0E0B0E0BC01CD010E94741681E060E0EE
:103A70000E94141684E991E00E94EB1580910F02D8
:103A8000882F90E0A0E0B0E0BC01CD010E94741648
:103A900080E090E0AAEFB3E48DAB9EABAFABB8AFE4
:103AA0006DA97EA98FA998AD20E030E04AEF54E4DB
:103AB0000E941F02DC01CB0189AB9AABABABBCAB64
:103AC00069A97AA98BA99CA920E030E040E85FE3CE
:103AD0000E94790388232CF481E090E098AB8FA7B3
:103AE0003FC069A97AA98BA99CA920E03FEF4FE7C5
:103AF00057E40E94190318164CF56DA97EA98FA9E9
:103B000098AD20E030E040E251E40E941F02DC0169
:103B1000CB01BC01CD010E944900DC01CB0198AB77
:103B20008FA70FC088EC90E09EA78DA78DA59EA5BE
:103B30000197F1F79EA78DA78FA598A9019798AB3C
:103B40008FA78FA598A9009769F714C069A97AA9CA
:103B50008BA99CA90E944900DC01CB0198AB8FA7DF
:103B60008FA598A99CA78BA78BA59CA50197F1F77A
:103B70009CA78BA79091100280910F02891708F4DF
:103B800085C00E945F1780E067E00E9414168FE9ED
:103B900091E00E94EB1581E060E00E94141688EA33
:103BA00091E00E94EB1580E090E0AAEFB3E48FA3D0
:103BB00098A7A9A7BAA76FA178A589A59AA520E07B
:103BC00030E04AEF54E40E941F02DC01CB018BA3DA
:103BD0009CA3ADA3BEA36BA17CA18DA19EA120E05F
:103BE00030E040E85FE30E94790388232CF481E011
:103BF00090E09AA389A33FC06BA17CA18DA19EA157
:103C000020E03FEF4FE757E40E94190318164CF5E8
:103C10006FA178A589A59AA520E030E040E251E4A3
:103C20000E941F02DC01CB01BC01CD010E944900B2
:103C3000DC01CB019AA389A30FC088EC90E098A384
:103C40008F8F8F8D98A10197F1F798A38F8F89A1FE
:103C50009AA101979AA389A389A19AA1009769F7CC
:103C60000FC16BA17CA18DA19EA10E944900DC0126
:103C7000CB019AA389A389A19AA19E8F8D8F8D8D47
:103C80009E8D0197F1F79E8F8D8FFAC09091100253
:103C900082E260EA492F0E94811080E090E0A8EC67
:103CA000B2E4898F9A8FAB8FBC8F698D7A8D8B8DA3
:103CB0009C8D20E030E04AEF54E40E941F02DC01BA
:103CC000CB018D8B9E8BAF8BB88F6D897E898F8951
:103CD000988D20E030E040E85FE30E94790388237C
:103CE0002CF481E090E09C8B8B8B3FC06D897E89AA
:103CF0008F89988D20E03FEF4FE757E40E9419032A
:103D000018164CF5698D7A8D8B8D9C8D20E030E0F6
:103D100040E251E40E941F02DC01CB01BC01CD0155
:103D20000E944900DC01CB019C8B8B8B0FC088EC7F
:103D300090E09A8B898B89899A890197F1F79A8B00
:103D4000898B8B899C8901979C8B8B8B8B899C8918
:103D5000009769F714C06D897E898F89988D0E94BC
:103D60004900DC01CB019C8B8B8B8B899C89988BC8
:103D70008F878F8598890197F1F7988B8F8790911E
:103D80000F0280E160EA492F0E9481100E945F17B4
:103D900088EB91E00E94EB1580E090E0AAEFB3E49D
:103DA0008B879C87AD87BE876B857C858D859E853F
:103DB00020E030E04AEF54E40E941F02DC01CB0116
:103DC0008F839887A987BA876F81788589859A8537
:103DD00020E030E040E85FE30E94790388232CF480
:103DE00081E090E09E838D833FC06F8178858985D7
:103DF0009A8520E03FEF4FE757E40E941903181619
:103E00004CF56B857C858D859E8520E030E040E219
:103E100051E40E941F02DC01CB01BC01CD010E94D4
:103E20004900DC01CB019E838D830FC088EC90E0BC
:103E30009C838B838B819C810197F1F79C838B837F
:103E40008D819E8101979E838D838D819E810097B8
:103E500069F714C06F81788589859A850E94490029
:103E6000DC01CB019E838D838D819E819A83898322
:103E700089819A810197F1F79A8389830E945F175C
:103E80009091100280910F02891708F0B0CDE8964A
:103E90000FB6F894DEBF0FBECDBFCF91DF9108956E
:103EA000DF93CF93CDB7DEB76F970FB6F894DEBF31
:103EB0000FBECDBF82E260EA0E9418118F8F88E2A8
:103EC00060EA0E9418118E8F0E945F1787EC91E0C4
:103ED0000E94EB158F8D882F90E0A0E0B0E0BC0130
:103EE000CD010E94741680E090E0A8E4B2E4898FCE
:103EF0009A8FAB8FBC8F698D7A8D8B8D9C8D20E0D6
:103F000030E04AEF54E40E941F02DC01CB018D8BAC
:103F10009E8BAF8BB88F6D897E898F89988D20E0BD
:103F200030E040E85FE30E94790388232CF481E0CD
:103F300090E09C8B8B8B3FC06D897E898F89988D9B
:103F400020E03FEF4FE757E40E94190318164CF5A5
:103F5000698D7A8D8B8D9C8D20E030E040E251E4BC
:103F60000E941F02DC01CB01BC01CD010E9449006F
:103F7000DC01CB019C8B8B8B0FC088EC90E09A8B83
:103F8000898B89899A890197F1F79A8B898B8B891B
:103F90009C8901979C8B8B8B8B899C89009769F7F7
:103FA00014C06D897E898F89988D0E944900DC013B
:103FB000CB019C8B8B8B8B899C89988B8F878F8572
:103FC00098890197F1F7988B8F8781E060E00E94D4
:103FD000141683ED91E00E94EB158E8D882F90E0F2
:103FE000A0E0B0E0BC01CD010E94741680E090E03A
:103FF000AAE7B4E48B879C87AD87BE876B857C85F9
:104000008D859E8520E030E04AEF54E40E941F0237
:10401000DC01CB018F839887A987BA876F81788568
:1040200089859A8520E030E040E85FE30E947903CB
:1040300088232CF481E090E09E838D833FC06F81C4
:10404000788589859A8520E03FEF4FE757E40E9405
:10405000190318164CF56B857C858D859E8520E0AF
:1040600030E040E251E40E941F02DC01CB01BC01C0
:10407000CD010E944900DC01CB019E838D830FC0DE
:1040800088EC90E09C838B838B819C810197F1F776
:104090009C838B838D819E8101979E838D838D81EF
:1040A0009E81009769F714C06F81788589859A850C
:1040B0000E944900DC01CB019E838D838D819E810E
:1040C0009A83898389819A810197F1F79A838983F9
:1040D0000E945F176F960FB6F894DEBF0FBECDBF7C
:1040E000CF91DF910895DF93CF93CDB7DEB760977F
:1040F0000FB6F894DEBF0FBECDBF0E948C170E9492
:10410000B6178091FE01282F30E0388B2F878F85DE
:10411000988981339105E1F02F8538892233310563
:1041200034F48F8598898033910569F0EACF2F8523
:10413000388922333105B1F08F8598898333910511
:1041400009F48CC0DECF0E94D718DBCF0E94C919BA
:104150008091FE018133D1F3D4CF0E94ED1C80E326
:104160008093FE018091FE018233B9F3CACF0E9491
:10417000501F80E090E0A8ECB2E48B879C87AD876D
:10418000BE876B857C858D859E8520E030E04AEF7B
:1041900054E40E941F02DC01CB018F839887A9871A
:1041A000BA876F81788589859A8520E030E040E87C
:1041B0005FE30E94790388232CF481E090E09E83E2
:1041C0008D833FC06F81788589859A8520E03FEF98
:1041D0004FE757E40E94190318164CF56B857C8550
:1041E0008D859E8520E030E040E251E40E941F0270
:1041F000DC01CB01BC01CD010E944900DC01CB01F7
:104200009E838D830FC088EC90E09C838B838B8191
:104210009C810197F1F79C838B838D819E8101970F
:104220009E838D838D819E81009769F714C06F8175
:10423000788589859A850E944900DC01CB019E839F
:104240008D838D819E819A83898389819A8101974B
:10425000F1F79A83898380E38093FE018091FE01C8
:10426000833309F484CF4DCF629FD001739FF00157
:10427000829FE00DF11D649FE00DF11D929FF00DF6
:10428000839FF00D749FF00D659FF00D9927729F2D
:10429000B00DE11DF91F639FB00DE11DF91FBD01B8
:1042A000CF0111240895AA1BBB1B51E107C0AA1F0F
:1042B000BB1FA617B70710F0A61BB70B881F991FC7
:1042C0005A95A9F780959095BC01CD010895A1E27A
:1042D0001A2EAA1BBB1BFD010DC0AA1FBB1FEE1F80
:1042E000FF1FA217B307E407F50720F0A21BB30BCB
:1042F000E40BF50B661F771F881F991F1A9469F747
:1043000060957095809590959B01AC01BD01CF01A2
:1043100008952F923F924F925F926F927F928F9269
:104320009F92AF92BF92CF92DF92EF92FF920F9344
:104330001F93CF93DF93CDB7DEB7CA1BDB0B0FB64E
:10434000F894DEBF0FBECDBF09942A88398848880B
:104350005F846E847D848C849B84AA84B984C884A1
:10436000DF80EE80FD800C811B81AA81B981CE0F98
:10437000D11D0FB6F894DEBF0FBECDBFED0108957D
:04438000F894FFCFDF
:10438400494D545F4156525F50524F4A4543544938
:104394000054454D504552415455524520434F4ECB
:1043A40054524F4C2053595354454D2000494D54B9
:1043B4005F4156525F50524F4A4543540041626434
:1043C4006C72686D616E204E6173720054454D507D
:1043D4005F4354524C5F53595354454D00312D2083
:1043E400535441525400322D20454E5445525F4E91
:1043F40045575F48264C5F54454D5000332D20539C
:10440400484F572043555245454E542054454D502E
:1044140000322D454E5445525F4E45575F48264C59
:104424005F54454D5000545F2A633D2000414C4188
:10443400524D0046616E53706565642031303025FD
:10444400004E4F524D0046616E53706565642035D1
:104454003025004C4F570046616E537065656420EB
:10446400302500464952455F414C41524D004E4F64
:1044740052414D4C5F4D4F4445004C4F575F54459E
:104484004D5052415455524500454E5445522048D2
:104494004947482054454D5000454E544552204C00
:1044A4004F572054454D5000484947485F54454DA7
:1044B400503D20004C4F575F54454D503D20002047
:1044C40057524F4E47212000454E54455220545FC9
:1044D40048203E20545F4C0053544F5245205355BE
:1044E4004343535345530054454D505F484947484F
:1044F4003D200054454D505F4C4F573D2000000077
:10450400000000000000040506070405060737380C
:10451400392F3435362A3132332D63303D2B300078
:00000001FF
